:020000040000fa
:080000000002040000000000f2
:020000040000fa
:100400000fe32100007f24000001880000000000ad
:100410000c00070080e3230001002000110007000a
:10042000000020000000e000020032000000020096
:1004300000000000a2320200000000000040da00cc
:100440000000fe004440a900802120000000e000e0
:100450000300320000002000a00188004440a800f2
:100460000000060091018800800078000000eb0089
:1004700015003700e280400032a0b4009101ba00bc
:10048000e280400032a0b4009102ba00e280400055
:1004900032a0b4000002eb00472bde00f507b200eb
:1004a000602ce10004003a000059eb008301e900f0
:1004b000fdff3e00040037006128e100010032002a
:1004c0000082eb00040007001101ba000200e00006
:1004d000e8ff3a00000006003159ba008301e90044
:1004e0000c0032002159ba008301e90008003200f3
:1004f0000400e00003003a00e280400032a0b400b3
:10050000f5ff370011d9ba008301e900faff3a007c
:100510008100e800e180400032a0b4000000060045
:10052000602f040000000000ac2f04000000000059
:100530001630040000000000bc3004000000000081
:1005400014320400000000008427040000000000b2
:10055000ca3d0400000000009c3d040000000000b3
:10056000d03f0400000000003840040000000000fc
:10057000c2330400000000009235040000000000b7
:100580005244040000000000b641040000000000d6
:10059000f241040000000000d0020400000000004e
:1005a000881f78000204780014000700080040004b
:1005b0004f047800000006000000fa00881f780051
:1005c000000478003fb99700ea8157008000780066
:1005d000002d200031000700800078000000e000be
:1005e000020035000040eb0000f4780001007800c4
:1005f0004f0478000080fa00000006008001eb0044
:100600000200370061f079008301e800828f510019
:10061000fcff3a000000060000037800800178002b
:100620000002eb000100370080597800840251007d
:10063000820f52000900320064c078000402e80012
:100640000004e000f8ff3a00830078008058eb00d7
:1006500005804100808f5000fcff3a0006007800c2
:10066000000006008001eb00020037008171780075
:100670008301e800828f5100fcff3a000000060071
:1006800080007800010037000000e8001004e0005e
:10069000fdff3a0001005000000006006200fa0071
:1006a000889fbe008a9fbe000004be00020578003d
:1006b0008300780060f92f000f004000b0000700b1
:1006c00088979f0099979f000000eb00a09f9f00d4
:1006d0009a4578000b80fb000000ea00cf04de00a2
:1006e00050c2b30080cf55000200320009047800e8
:1006f000010037000904e9000800e0000b003400a5
:100700001f909700080178008a0078008f91970069
:100710000300010090979f000000e000930032006a
:100720002f98970000004400a09f9f0009054500f6
:1007300050c2b30080cf5500040032000b04e0002b
:10074000e3ff3a002f989700890037000000eb0084
:10075000809f9f00f0979f00e0979f00d0979f0099
:10076000c0979f00b0979f00c09f9f00090037006f
:10077000c0e12100008050000000400001e12100a4
:10078000e10078004f98970001007000c09f9f0023
:100790000a05e8001a4478008800fb00c0e1210047
:1007a0007c000700800078000000e000f0ff3a00c5
:1007b000a0c2b300804f54000e003a00bf889700db
:1007c0000180e900b08f9f0010007800b09f9f006b
:1007d0000000e00005003d000000ea00b09f9f001f
:1007e0004f9897000020a000c09f9f000a05e800d6
:1007f00010003700b19f9f0009003700bf98970095
:10080000f0ff2700808f5000040032006a08b90012
:100810000000410003004000b09f9f000a05e8006f
:100820001a01fb0003fd2f0003004100e90f5000f7
:10083000f2ff3600e0c2b3009a4f1000040032000d
:100840000080eb00909f9f008a0478001c00370016
:100850008a04e800a0c2b300994f100007003a00d4
:10086000bf8897000180e900b08f9f0010007800da
:10087000909f9f008a84e800110037000000eb0081
:10088000909f9f00090037009f989700f0ff270076
:10089000808f5000040032006a08b9000000410057
:1008a00003004000909f9f008904e8001901fb00ad
:1008b00003fd2f0003004100e90f5000f2ff360056
:1008c000194478008800fb0020e221003100070075
:1008d0000000e00002003a00004478000100370008
:1008e0008904e800a87f9f0080c6b300804f5400b1
:1008f00004003a00994f14000a003a006640500084
:1009000006003700c0c6b300804f540005003a000f
:10091000994f140003003a0065404000a07f9f00fb
:100920008904e8000905e800c8fb2f000f04440013
:1009300060f92f000f0040008085e80088017800f2
:1009400019417800800078000b0078001a00070039
:100950000000e00005003a00880078000b007800f5
:10096000920107000000e00059ff3d000080eb000d
:100970004f05be004f04be000080fa0000000600d4
:100980000200fa00f1bf9f00010878000080fa0021
:1009900000000600040037000204e00001003a00f5
:1009a000000005000000e80010417800814f510070
:1009b000f9ff3a0000000600889fbe008a1f7800f9
:1009c0000004780001027800824478000305780072
:1009d00070c6b300804f510021003c0000c0e90008
:1009e000804f5100de003d0072405000804f5100aa
:1009f0004b0132000d003c006c405000804f510014
:100a00005e013c0000c0e900804f5100d4003d0071
:100a100050c2b300804f5100550132007c4040006d
:100a2000804f510055013a00cd00370010c6b30089
:100a3000804f5100ca00320004003c006940500061
:100a4000804f51004d013a007200370030c6b300ac
:100a5000804f5100180032000040e80009003700c4
:100a600000c7b300804f51001e01320008003c0057
:100a700000c0e900804f5100e400320065003c00f6
:100a80006540500080cf54003c013a000f00370011
:100a900050c7b300804f51005e00320063404000f9
:100aa000804f51005b00320065405000804f510084
:100ab00032013a001a0137009180e900010a7800fa
:100ac000780090009171780032013700a8609000a2
:100ad000c0c6b30080cf50000a003a0094007800ee
:100ae00064805000000a78001000be004f89de00cc
:100af000cf91de000002be0002037800820378007e
:100b00001300370010c7b30080cf5000030032003d
:100b1000a0c6b30080cf500006003a0094007800d1
:100b200068805000000a78003002be002003be003a
:100b3000070037001480e900000a780010007800f0
:100b400000027800cfa2de0005037800860378005b
:100b5000049cbe000694be00a860900080c6b3004e
:100b600080cf50000e00320020c6b30080cf50006e
:100b700005003a000400fb00cf80de000101780090
:100b8000820178000a00370040c7b30080cf5000d0
:100b9000030032006640400080cf500006003a005b
:100ba00004007800cf80de00010178008201780027
:100bb000009cbe000294be003800be002801be00aa
:100bc000e00f5000e08f5800e00f5900e08f59000f
:100bd00003003d0078009000d1c2b3000a00370046
:100be000081090000018a300030032007800900065
:100bf000b1c2b300040037000008a3005300320064
:100c00007800900001c2b300017578000000e80090
:100c10004d003700a8609000c0c6b30080cf5000e0
:100c200006003a009400780064805000000a7800c2
:100c30001002be006033b8001300370010c7b300c5
:100c400080cf500003003200a0c6b30080cf500018
:100c500006003a009400780068805000000a78008e
:100c60003002be002003be00070037001480e900f8
:100c7000000a7800100078000002780005002000cb
:100c80000600200007002000049cbe000694be0061
:100c9000a860900080c6b30080cf50000e003200e4
:100ca00020c6b30080cf500005003a000480fb004e
:100cb0000100200002002000030020000a0037008d
:100cc00040c7b30080cf50000300320066404000b0
:100cd00080cf500006003a00040078000100200098
:100ce0000200200003002000009cbe000294be0011
:100cf000081090000038a300140032003800be0035
:100d00002801be00e00f5000e08f5800e00f5900ae
:100d1000e08f59000d00320080c7b30080cf54002f
:100d20000300320080c5b30080cf540007003a00b2
:100d30007800900001c3b300017578008000e800de
:100d400009f578000080e8007004980078009000b1
:100d50000000450060049800894078006d0037006d
:100d6000a8609000c0c4b30080cf500006003a00d5
:100d70009400780068805000000a78005001be009e
:100d80004000be00050037009400780064805000e9
:100d9000000a78001000be000c090700009cbe008d
:100da0000294be00380090000000e00003003d0007
:100db00078009000d1c2b3000a00370008109000fc
:100dc0000018a3000300320078009000b1c2b30005
:100dd000040037000008a3000500320078009000ee
:100de00001c2b300017578000000e80070049800ab
:100df0007800900000004500600498008940780069
:100e0000080078003301070064003700a8609000f4
:100e1000c0c6b30080cf5000250032000a003c005d
:100e20006440500080cf50002800320000c0e8002d
:100e300080cf5000140032006840500080cf500036
:100e400022003a000a00370040c7b30080cf5000ac
:100e50001e0032006640400080cf50001b00320070
:100e60006940500080cf500018003a00060037005b
:100e70001480e900000a780010007800485c9000b7
:100e800008487800450037001480e900000a78001f
:100e90001002780068089000cf80de000101780021
:100ea00082017800009abe000292be003b0037002b
:100eb0001480e900000a78001001780068089000aa
:100ec000cf80de000089be00340037001480e900c6
:100ed000000a780010007800680c9000080878007c
:100ee0002e0037001180e90080087800100078009b
:100ef000cf80de000101780082017800009cbe00f6
:100f00000294be0078009000000045006004980044
:100f100081c7b30008007800170307001f003700df
:100f20001480e900000a780010007800600498003e
:100f3000580990000200e00002003d00d0fd0700cb
:100f4000090037008000eb0098040700800078005b
:100f50000000e000030032006800900000805000b4
:100f60000100370058089000100c98000b00370063
:100f70007800900002757800060037007800900035
:100f8000800045000904e00001003a0059c2b300a6
:100f9000894878000000e800700498000000eb0029
:100fa0004f0578004f04be00000006000400fa0060
:100fb000889fbe008a9fbe008c1f780000047800c6
:100fc0000106780070089000f800900001005000c1
:100fd000880890000100500098089000010050001f
:100fe000a808900001005000b808900001005000cf
:100ff000c8089000810550000002220090bf9f00a9
:1010000000032300a0bf9f00081090000028a30049
:1010100018003a000b00e000160034008b04780042
:1010200009057800e28f5400020036002a002000f3
:10103000020037000900e0000b0034005800900067
:10104000c80190000a017800ee80570003000100fb
:10105000500498000000e0009600320068089000fc
:1010600000004500600c98008a8454004240a900aa
:10107000ebff3c00780190000200e0000b00340020
:1010800058009000c80190008c0078000300010017
:10109000500498000000e0008600320068089000cc
:1010a000f800900001004000600c9800880c90004f
:1010b0000900e0001500340009057800e28f5400b3
:1010c000020036002a002000020037000900e0007c
:1010d0000b00340058009000c80190000a0178000d
:1010e000ec80570003000100500498000000e0006d
:1010f000700032006808900000004500600c980005
:101100008a8454004240a900ebff3c00180990007b
:101110000200e0000b003400e8009000580090004e
:10112000c801900003000100500498000000e00096
:1011300060003200680890009808900001004000ac
:10114000600c9800a80c90000900e0001500340025
:1011500009057800e28f5400020036002a002000c2
:10116000020037000900e0000b0034005800900036
:10117000c80190000a017800ec80570003000100cc
:10118000500498000000e0004a0032006808900017
:1011900000004500600c98008a8454004240a90079
:1011a000ebff3c00380990000200e0000d00340025
:1011b000e8009000180890008080400058009000df
:1011c000c801900003000100500498000000e000f6
:1011d0003800320068089000b80890000100400014
:1011e000600c9800c80c90000900e0001500340065
:1011f00009057800e28f5400020036002a00200022
:10120000020037000900e0000b0034005800900095
:10121000c80190000a017800ec805700030001002b
:10122000500498000000e00022003200680890009e
:1012300000004500600c98008a8454004240a900d8
:10124000ebff3c00081090000028a3001b003200b8
:101250000b00e000190034008b04780009057800c9
:10126000e28f5400020036002a00200002003700fe
:101270000900e0000b00340058009000c801900005
:101280000a017800ee805700030001005004980026
:101290000000e000070032006808900000004500f0
:1012a000600c98008a8454004240a9000300340076
:1012b000eaff37000080eb00010037000000eb0080
:1012c0004f0678004f05be004f04be000080fa00b4
:1012d000000006008f04b000889fbe008a9fbe00f9
:1012e0008c9fbe008e1f7800f0b79f0081f79f0093
:1012f0005001be004000be00f0979f00819f9f00fc
:10130000929f9f00a39f9f0010c6b3000ff197000c
:10131000804f51001600320010c4b300804f5100be
:1013200013003200ffb19700530890000000e00066
:1013300003003d0060002000d00998000c00370039
:101340000000e0000a003a0070c6b3000ff29700f8
:10135000804f52000300320070c4b300804f52002f
:1013600003003a0010002000ffb29700d00a980056
:10137000ffb09700c0fa2f000f0040009503070050
:1013800080017800e20f500015003a003000200084
:10139000ffb097009008980010c6b3000ff19700b7
:1013a000804f51000a00320064404000804f5100dd
:1013b000070032000040e800804f51000400320076
:1013c000c1db21000040e800804f510001003a00dd
:1013d00001dc2100ffb19700630090001600370088
:1013e0000000e00018003400300020007fb29700b9
:1013f000100a980010c6b3008ff2970080cf5200f9
:101400000a0032006440400080cf520007003200e2
:101410000040e80080cf52000400320041dc21008f
:101420000040e80080cf520001003a0081dc21003a
:101430007fb19700620090003158780031587800f1
:1014400011487800c601370014c6b3008ff2970028
:1014500084cf52000300320010c4b30080cf52008a
:1014600013003a007fb0970060019000820078007e
:1014700000c3b30080587800ffb29700e1029800e3
:1014800080c7b3008ff2970084cf52000100320072
:1014900080c5b300804878000280e800ffb0970064
:1014a000e0009800710090000080e800f0009800d3
:1014b0000300e00005003a00e3979f0064fb2f0063
:1014c0000f01420003077800a0013700c5dc2100ae
:1014d000e5b79f0010c6b3008ff0970080cf500093
:1014e0000500320010c4b30080cf5000a7003a00be
:1014f000d2dd2100e2b79f00ffb1970053089000b2
:101500001e0220000000e000010035000007e80096
:101510000e02e800d4b79f006022b8006033b80024
:101520007f9097008f9897001f999700af99970029
:1015300045070700ffb097003102be002103be003f
:101540000000e00004003d000400be000601be00f3
:1015500003f0a200020037000400be000601be0036
:10156000f0979f00819f9f00929f9f00a39f9f00e5
:101570006f91970064015100e2979f00c3fa2f001a
:101580008f8141006a8041000048eb006b8241007e
:10159000c4b79f0031003700c201200003002000c3
:1015a000e5fa2f000f804200360307007f94970072
:1015b0008f9c97001f9d9700af9d97000800be006d
:1015c0000a01be00250707000006be005fb19700b4
:1015d00067015100d2b79f004240a9000a003400c1
:1015e0004a0707000002be000203be000800be005a
:1015f0000a01be0048070700f0979f00819f9f00e7
:10160000929f9f00a39f9f00cfb1970067804100ea
:1016100071002000050037006f6066004c6add0035
:101620004466de000c067200c4eede00e00f5600d9
:10163000e08f5e00050034008100e900e18f40008a
:10164000f5ff3a00010037000060eb008100e9007f
:10165000fdff3b0067004000c0b79f00dfb297006e
:101660000500e000090034006022b8006033b800d3
:101670007f9097008f9897001f999700af999700d8
:10168000270707000000e000c3ff3c0060fb2f00bd
:101690008f0040004fb19700010051000000e900a9
:1016a0008e0f500001003d00000778000e00e000a2
:1016b00003003d0073fb2f000f8141002c00370019
:1016c000800f570005003d000e8040001040900044
:1016d000f3c0b300e74f500001003c008041eb0035
:1016e000c4fa2f000f0242000e0042006a004000c0
:1016f0008e007800010037000000e9008100e90059
:1017000010417800834f5100fbff32000107e800d1
:10171000efcf510001003a000248e8000100e0006c
:101720000300350075fb2f000f81420006003700d3
:101730000e07e8006f90970064004000e0979f005c
:1017400061fb2f000f8140008e0041008e01780068
:10175000030037001100fb006fb29700e4487800e7
:101760008301e9008100e9000300e000f9ff3d008a
:10177000ffb29700550890000000e000f3003d0024
:101780000e00e900d00a9800f00037007f9497001f
:101790008f9c97001f9d9700af9d97006022b80017
:1017a0006033b8000800be000a01be00a6060700ac
:1017b0000000e00005003d000bf0a200f8979f003c
:1017c000899f9f009a9f9f00ab9f9f006f909700fb
:1017d000725927000280b900026a28001300200015
:1017e000ed050700e4005000e1979f0015003b0065
:1017f000e3801000c0ff2f00008460000800ea00b2
:10180000e0979f007f9097008f9897001f9997000f
:10181000af99970049d72100070037000808a300b7
:10182000030032003902be002903be00c1060700d2
:101830000884d100e88444000800e000f7ff3c0081
:101840001b0037000100e0001d003400c0ff2f0026
:1018500000806000e0979f00000478006000b800fe
:101860000200200003ff230049d7210007003700b2
:101870000808a300030032003902be002903be009d
:10188000ac0607000884d100e88444000800e000aa
:10189000f7ff3c000002be000203be007f909700ed
:1018a0008f9897001f999700af9997001607070028
:1018b000f0979f00819f9f00929f9f00a39f9f0092
:1018c000ffb097005109900060c6b3008ff19700f8
:1018d00080cf5100040032006100200060c4b300da
:1018e00080cf510002003a006f929700ea00420058
:1018f00001074100f30f5700010034003e012000b2
:1019000000c3b300e0779f0075fb2f008f82420079
:10191000b5b79f00330037000800be000a01be00c3
:101920004e0607000006be00680757004240a900a7
:101930000e003400750607000002be000203be0060
:101940000800be000a01be00730607006022b8004e
:1019500046782d007719240076060700f0979f003f
:10196000819f9f00929f9f00a39f9f003fb0970081
:1019700068044000890020000d003700a40020000a
:10198000050020000c01be00e0fd2f000f0040000c
:10199000b50207007fa897008fb097001fb197008e
:1019a000afb1970004c3b300046441000006be0059
:1019b000e00f5600e08f5e00060034008904e90065
:1019c000e18f4400edff3a000200370000c3b3008e
:1019d000006478008904e900fcff3b0068044400cf
:1019e000b8b79f000e00e0000b0034007f94970012
:1019f0008f9c97001f9d9700af9d97006022b800b5
:101a00006033b8000800be000a01be0044060700ab
:101a10000000e000c0ff3c00c5fa2f008f824200aa
:101a20006a804200bfb09700008050008001e9004a
:101a30006f919700e70041006b8142000100370081
:101a40000201e80000c3b300924f1000fcff320017
:101a500074fb2f000f004200808040008280500005
:101a60000080410002025000e1979f00ffb2970002
:101a7000d509900060c6b3008ff2970080cf520066
:101a80000300320060c4b30080cf520002003a006d
:101a90008100e8000a00370050c6b3008ff09700bd
:101aa00080cf5000050032008000eb0050c4b3002e
:101ab0008ff2970080cf520001003a001100200001
:101ac000018741008e0f520001003d00040778009d
:101ad0000e00e0001d003500840f570005003d009a
:101ae000e2407f0095c3b30040c3b30080cf5000f5
:101af00001003c0005c3b3000e0041008000e90076
:101b00008e017800010037008100e9008301e900bf
:101b100011427800854f5200fbff32000307e800b6
:101b200090c3b30080cf520001003a008448e8001f
:101b30000300e00005003d000201e9000e07e80097
:101b40006f9097000000e800e0979f006f92970069
:101b50008e0178008ff097007fb097005f0207003a
:101b60004f0778004f06be004f05be004f04be0071
:101b70008f04b100000006002f03b000889fbe0054
:101b80008a9fbe008c9fbe008e1f780000077800e1
:101b9000f0df2100c0b79f0080c5b30080cf5000a8
:101ba00008003200e2de2100c2b79f00774040000b
:101bb00080cf500003003a0083002000b3b79f009d
:101bc0000a00370080c7b30080cf50000500320004
:101bd000a4002000b4b79f0080c5b30080cf5000a0
:101be00002003a0005012000b5b79f003e04be0088
:101bf0002e05be0040c6b30080cf50000300320067
:101c00006540400080cf50000b003a00e00f5400c8
:101c1000e08f5c00e00f5d00e08f5d0006003d009e
:101c20006000b8006011b8000804500089845800b2
:101c30000a0559008b8559003fb19700e80f510004
:101c400003003200f00f510045003a000200370057
:101c50003c002000010037004c002000e00f540041
:101c6000e08f5c00e00f5d00e08f5d0005003a0052
:101c70005e08900083012000a3b79f000000e000f1
:101c8000080032003fb297000400e900080060003d
:101c9000cfb297006540780090df9f007001200070
:101ca000a0b79f008c0078008100e9000500330098
:101cb0008b05d1000a85d3008984d3000884d30022
:101cc000f9ff3700089fbe000a97be002fb19700aa
:101cd0000200e90023fc2f008f81410000844100b5
:101ce000140037002fb097000000e900a0b79f0054
:101cf0003fb197000200e90004006000cfb19700f7
:101d0000635478003e00be002e01be000c02780035
:101d10000402e900050033008381d1000281d30071
:101d20008180d3000080d300f9ff3700009fbe0000
:101d30000297be003e02be002e03be00e00f52001e
:101d4000e08f5a00e00f5b00e08f5b00da003400a8
:101d50002fb097000000e000e2ff3c00d600370003
:101d6000ae60900080c6b30080cf50000b00320000
:101d700006003c000104e00008003200664050000c
:101d800080cf500073003a0004003700c0c6b30093
:101d900080cf50006f003a00310037000801780012
:101da0000800e00005003a005e0890008101200074
:101db000a1b79f000000e00009003200bfb197000a
:101dc000110009000381d8008000fd004fb2970088
:101dd0006440780090df9f0075012000a5b79f0048
:101de0003fb29700110009000481d80080017800fb
:101df000afb297000500e90021fc2f008f80400062
:101e0000008240000c003700bfb2970011000900ab
:101e10008501d800000178002fb097000000e9008c
:101e2000a0b79f000590b90000805100cfb0970087
:101e300061527800820178000300e0000300340062
:101e40002fb197000200e000efff3c000300780094
:101e5000cf80de0001017800820178003a0037006f
:101e60000806be00e00f5400e08f5c0005003a0059
:101e70005e08900083012000a3b79f000000e000ef
:101e8000090032003fb297006121b9000c00be008a
:101e9000f7050700cfb297006540780090df9f00fc
:101ea00070012000a0b79f003fb297006121b900e8
:101eb0000c00be00470407000006be00afb297004a
:101ec0000500e90021fc2f008f8040008080400049
:101ed00091b79f00110037003fb197006114b9001e
:101ee0000801be000c00be002b0407000005be0068
:101ef000afb197008301e900a3b79f000801be00be
:101f000001030700000056001fb29700cfb29700f0
:101f10006552780094b79f000a06be00e00f560095
:101f2000e08f5e00030034002fb097000000e00057
:101f3000e9ff3c004feade00cfa2de000c00be004d
:101f40000401780084017800009fbe000297be0063
:101f500059003700e00f5400e08f5c00e00f5d0097
:101f6000e08f5d0005003a005e08900081012000ce
:101f7000a1b79f000000e0000d0032003fb19700c4
:101f800002027800cfa2de00050378008603780005
:101f90000800be000a01be00390607004fb29700d4
:101fa0006440780090df9f0075012000a5b79f0076
:101fb0003fb1970002027800cfa2de00050378004f
:101fc000860378000800be000a01be00250607004f
:101fd000009fbe000297be00afb197000300e9006a
:101fe00024fc2f000f0242000006420024003700ac
:101ff000bfb2970005047800cfc4de000905780061
:102000008a0578000802be000a03be005fa8970098
:10201000efa897007fa997008fb197001c060700d3
:10202000d0b79f00e1b79f00f2b79f0083bf9f002a
:102030002fb097000000e900a0b79f000802be0083
:102040000a03be005fb09700efb097007fb1970022
:102050008fb99700940607005faa9700000052000e
:10206000cfb29700655678005fb09700efb0970049
:102070007fb197008fb99700009fbe000297be0006
:102080003e00be002e01be00d0af9f00e1af9f001a
:10209000f2af9f0083b79f00e00f5000e08f580021
:1020a000e00f5900e08f590003003400afb09700f3
:1020b0000100e000ceff3c003fb19700e80f510067
:1020c00013003a000e1090000038a30010003200f8
:1020d000afb19700f78f510006003e0024fc2f009f
:1020e0000f0242008300420000c3b300914f100072
:1020f00007003200afb297008502e900a5b79f0044
:1021000000c3b30021fc2f008f80400080f07a00d4
:10211000afb1970078811100120f98006e00900007
:1021200024fc2f000f0242008300420033f9070015
:102130001e0990005e089000800f510006003d00cf
:1021400002005000000f98000e1090000040a10007
:10215000001798000f0037000000e0000d003d0060
:102160000e10900074006000f00f500009003a005b
:102170007e089000fe009000010050008e08900044
:1021800001005000020050004240a900010034004c
:10219000000f98004f0778004f06be004f05be00a5
:1021a0004f04be002f03b100000006008001eb00c9
:1021b000040037008301e80090cf100004003200d3
:1021c0000000e800828f5100faff3a000000eb00a7
:1021d00000000600889fbe008004780066844000ee
:1021e00000ff2700180060004401de00f07f20009f
:1021f000800f51000e003a00800ceb0018047800ac
:102200006f0064001c003a00210090000000e00014
:1022100019003a00110090000000e00016003a009a
:10222000100020001100e0001400320012003700fe
:102230000200e00005003c0001007800db0107001f
:10224000000178000000e00008003c00f0002800d9
:102250001800600001fe2300010c700020c02f0058
:10226000800c41000080eb0004003700800ceb0084
:102270000000eb0001003700200020004f04be00ea
:1022800000000600889fbe008a1f78008c9fbe0059
:10229000000478000206be00e60440001901780040
:1022a0000200d0004505de008a007800f07f2000a3
:1022b000800f55000c003a006f00610065003a0085
:1022c000280090000000e00062003a001800900032
:1022d0000000e0005f003a00100020001800e0005d
:1022e0005d0032005b0037000a00e00007003a00a2
:1022f00008007800ad010700800078000000e000d1
:10230000020034000a007800530037006108b90069
:102310000c0140008d814800e07f2000800f5100bb
:10232000e08f59000d0034001900e00004003d006a
:102330006000b8000200200003ff2f0003003700f8
:102340006000b8000200200003ff2700009cbe00d0
:102350000294be00100020003f003700e00f510043
:10236000e08f590005003400f000280019006000db
:10237000c410dd00810c70003400370019007800b3
:1023800001002800010360006f0060000040a00011
:10239000800c780061015100e0815900c0fc2f00e1
:1023a000f1ff2f00800f5100818f59000d003d007b
:1023b000860c78000000eb002004980010049800c0
:1023c000000c7800240037008880e800110c7800a9
:1023d000640044009008780019087800800ceb0035
:1023e00070014100f00f4100f7ff34008202ea0063
:1023f000150032008881e800708212009800780091
:102400008508de00130078000400dd00008c7000f9
:1024100064014400930078008508de001200780013
:102420000400dd0080897000920078008508de00dd
:10243000190078000400dd000089700019007800a0
:102440000500de00800c7800990c73000080eb0022
:1024500001003700200020004f06be004f05780025
:102460004f04be00000006000400fa00889fbe0072
:102470008a9fbe008c1f78000006780092bf9f00e4
:10248000a3bf9f000404be000401be001fb8970054
:10249000afb89700c00207000005be000001be00f3
:1024a0000800be00980107001fb99700afb9970058
:1024b00000005100818059002006980031069800e4
:1024c0000a8ebe000c0078004f0678004f05be0053
:1024d0004f04be000080fa00000006000e00fa0063
:1024e000889fbe008a9fbe008c9fbe0000047800bb
:1024f000014578000206780083047800840678009d
:102500000300e00002003c0019002000cce22100a2
:1025100060c6b300804f55000e00320060c4b300a7
:10252000804f55000b00320070c6b300804f55003d
:102530000300320070c4b300804f55009c003a0085
:10254000e48f46008000350058089000808f5600c8
:102550007d003d008d05e80060c6b300804f55004a
:102560001000320060c4b300804f55000d003200ef
:10257000081090000038a30004003a0058089000aa
:10258000808f540001003d00590c980058089000bd
:102590000b005000500c980002003b000000eb00c4
:1025a000500c98000b00e00027003c001809900038
:1025b0006800900001c3b300017079008201e80057
:1025c000130c9800580890000000e00003003c0045
:1025d000081090000038a300050032006800900049
:1025e000e1c2b30001f079000280e800100c98000d
:1025f000d80890000b00ea00808f500001003d00d9
:102600008105ea000b00ea00200c980001804500db
:10261000500c9800890f500001003d0080047800a4
:10262000390c980068009000980890000100400064
:10263000090178008c007800f0f707005808900036
:10264000090050001a0037009808900068009000b8
:102650008b8f540018003d000100400009017800f4
:102660008c007800e5f7070018089000008144000e
:10267000120c980009805500200c98005808900012
:102680000000e00003003c00081090000038a300a8
:1026900006003200e8009000e0c2b30080707900cc
:1026a000380890000000e800300c980058089000ae
:1026b000400c9800a6003700010040000b01780094
:1026c0008c007800cdf707001808900000814500c5
:1026d000120c98008b845400580890000000e00011
:1026e00003003c00081090000038a30005003200f1
:1026f00068009000e1c2b300017079000200e800b8
:10270000100c980058089000890f500001003d00ff
:102710008004780068009000980890000100400054
:102720008b00460009017800b4f7070018089000f4
:1027300000804400100c98005808900009005000d8
:10274000200c98008200370070c6b300804f5500ff
:102750000300320070c4b300804f550014003a00eb
:1027600058089000808f540004003d00081090002d
:102770000038a30001003a00590c98005808900056
:102780000000e900500c980002003b000000eb0044
:10279000500c980070c6b300804f550002003a00fc
:1027a0005ac6b3000b0037005ac4b3000900370003
:1027b00010c6b300804f550002003a000ac7b300ac
:1027c0000400370010c4b300804f550001003a00e8
:1027d0000ac5b30018099000680090003c707900a9
:1027e0008201e800130c98000c0278005808900051
:1027f0000000e00003003c00081090000038a30037
:1028000017003200e8009000e0c2b30080f07900c9
:102810008280e800110c9800580890000000e00049
:102820000f0034008904e900890f500001003d00c9
:102830008004780068009000008040000901780062
:10284000840078006df707001808900000804400ad
:10285000100c98005808900009005000200c9800b7
:102860006800900098089000010040000086e80091
:102870000a587800800078000d00e0000400350060
:10288000b0c2b300804878008c04780004003700a0
:10289000d0c2b300804878008c0478008d06ea002e
:1028a0008005eb000a003700a20020008d007800b0
:1028b00070805700890007000fb897009fb89700f5
:1028c0007a81550001f17f008b05e80080067800d1
:1028d0000d00e000f4ff3c00e18f550009003c00d2
:1028e00050c6b300804f55000300320050c4b300ff
:1028f000804f550003003a0000c3b300005e78002b
:102900008c0478000b00e000040032000b00e900aa
:10291000fa805700008040000600370000c3b30073
:10292000805c7800050037008b05e90002c3b30026
:10293000a05c41000b00e000fbff3c006800900041
:10294000980890000100400000805400300c98006e
:102950000810900074006000f00f50000e003a0064
:10296000780090009808900001004000a8089000ae
:1029700001004000b808900001004000c808900025
:102980008100400078089000808f500002003d00d8
:1029900001005000000c98004f06be004f05be001d
:1029a0004f04be000080fa0000000600000278001c
:1029b000e602400015007800010028008103600055
:1029c0006f006000800a780012003a002400900036
:1029d0000000e0000f003a00140090000000e0004a
:1029e0000c003a00160020001400e000380032000d
:1029f00008003700e4004200910a78000480e800f3
:102a00009008780014087800000aeb007003530067
:102a100001003700160020001500e000f5ff32002d
:102a2000130037006401420080004000120078006b
:102a30004f00de00808a70008481e80092007800f8
:102a400081804000130078004f00de000089700094
:102a50009300780081804000140078004f00de0071
:102a60008089700014007800000a40000603e90025
:102a700015007800ef0f5000eaff36001000370015
:102a80000481e8009400d100120078004f00dd00be
:102a9000008a7000e40042009201d1001100780029
:102aa0004f00dd00008971001101d1001500780090
:102ab0004f00dd0080087100950ad1000603e80090
:102ac00015007800ff0f5000edff3e00ef0a600098
:102ad000958a730006007800000006000202780064
:102ae000809fbe00110009008200d800000178001c
:102af0004f00be0002a2b90084805000110098006f
:102b00000208780000000600020ab900001bb900a4
:102b10000200b8008100420081004300000006006e
:102b2000889fbe008a9fbe00010578000100e0007a
:102b30000400350008003c000000e00020003200e6
:102b40000500370060001000e080180002003b0024
:102b500001f02c001a0037000004be006011b8001c
:102b60006b0920000982cf00020039000882cf00e3
:102b70000441b000694252000e00320008003b00e0
:102b800082817100610164008904d1000884d3004e
:102b90008b05e8000442e800f9ff3a000500370021
:102ba0000804440089844c008b05e9000442e900d4
:102bb000fbff3a00170107000af0a70001f0a00090
:102bc0004f05be004f04be000000060003f0a20047
:102bd000889fbe008a9fbe008c1f780033010700cb
:102be0003a0133006450e1004f0032006420e100fc
:102bf0005200320003826c0007003b000905d00040
:102c00000306d000820f54000c065d00020039005c
:102c100002003200890178000306780085825500a1
:102c200004003d000003fd008103fd008502ea0071
:102c30008b854200840f720002003b006000100090
:102c4000e08018006011b8000005eb007a28e10070
:102c50000a00390006007800c75ddd00f707b20002
:102c6000878075002d003700828171000a0178008d
:102c7000610560008180d1000080d3008502e900f9
:102c8000f9ff3b00060440008784480002003b0037
:102c900060041400e0841c000988a30007003200cf
:102ca0008a81710082817100610164008904d10010
:102cb0000884d3008b05e800170037000978a300cb
:102cc00013003a000b00e000130034008b05e9000c
:102cd0000804440089844c000a4474000978a30065
:102ce0000d003a000b00e000070034008b05e900fe
:102cf0000804440089844c0001003a000b002000c5
:102d00000978a300f7ff32000001eb000200370052
:102d1000828171000a017800be0007000cf0a70054
:102d200001f0a000f20037006420e10002003a0048
:102d3000838f6c00f20033000801be000200be0069
:102d4000eb003700889fbe008a9fbe008c1f780072
:102d5000d6000700dd00330003866c006450e100fc
:102d60002e0032006420e100330032006150e100a7
:102d70002f0032006120e1003100320085855500ce
:102d8000eb07b00009002000080420000500370010
:102d90000804440089844c000a0031000603430003
:102da00087834b000001530081815b00f8ff3300f3
:102db0000203be000800a0000804440089844c00ff
:102dc000f6ff3900c639dd008301730001003200cf
:102dd000130020008904d1000884d3000998a300bf
:102de000050032000800a7000300a0008904d100fc
:102df0000884d3008b05e8008904d1000884d3003f
:102e00000001eb000281d2008200070001f0a10066
:102e10000cf0a70001f0a000b50037006420e1002d
:102e2000b70032000801be000200be00f7ff370005
:102e30006120e100b20032006000b800f3ff37000b
:102e40000000200001f82700f0ff3700889fbe0037
:102e50008a9fbe008c1f7800940007009b003300ff
:102e600003866c006450e100240032006420e1001d
:102e7000270032006150e100220032006120e100b1
:102e8000210032008b854200eb07b1000134b8000d
:102e9000003ab8000804420089844a00013ab800a8
:102ea0000030b8008880400009014a000400330067
:102eb0000000400081804800020149008b05e900c4
:102ec000c909dd00830170000100320013002000f9
:102ed000c814de004814dd004709de001200b2000d
:102ee000c808de00088470004a00070001f0a10055
:102ef0000cf0a70001f0a0007d0037006120e10088
:102f00007f0032000801be000200be00f7ff37005c
:102f10006150e100fcff3a00790037001400200006
:102f20007a003700f4ff2f00780037000001be0060
:102f3000910007000470a70003f0a10003f8a300ac
:102f400013003a006509b100100032000900350095
:102f50006928e1000200350001002800000005009a
:102f600000004000818048008502e900fcff3a0033
:102f700000000600f88f4200050035008100d100f6
:102f80000080d3008502e800fcff3a000000060044
:102f90008000eb0000000500839f68000100e00056
:102fa00002003d0060001000e08018000300e00017
:102fb00002003d0060011100e081190005000700da
:102fc0004f00e00002003b0060001000e0801800ad
:102fd000000006006022b800060220000000d000b9
:102fe0008180d2000482d2008582d2000000a0003d
:102ff0000202520083825a000300310002024200a2
:1030000083824a000000a1000603e900f3ff3a00b2
:103010000000060081002000618055000b003d008b
:103020000b00200061fe2f000100e1001d003400b4
:1030300082817100610164008904d1000884d30099
:103040000000e800faff3a0071002000610064000f
:1030500003007000020060000900320061044400b7
:10306000e0844c000988a500050032008b05e800cb
:103070006808e10002003a008904d1000884d30006
:10308000f20f20000258e10005003d00c75ddd00a1
:10309000f907b2008980750008007800000006007a
:1030a0000bf827008b007800000005000004be002c
:1030b000310007000003be000405be000200be0090
:1030c0002d000700844f7500000006000200be00be
:1030d0006450e100050036006420e1000200360083
:1030e0000968a30001003a000800be000160a000ca
:1030f0004f0678004f05be004f04be0000000600da
:10310000f0ff2f00f1ff2700f9ff3700889fbe0076
:103110008a9fbe00841f7800e4ff07004f007800fc
:1031200011003300f0ff2f00838f6c0006003b007e
:10313000040565000a00a7000800370009f0a60092
:103140001000200008003700820f5400838f5c00bd
:10315000030039001000200001003e0000002000a4
:1031600009f0a7000000ea004f05be004f04be00b2
:103170000000e00000000600c70ade00f107b20010
:10318000f50fb20008003200e1cf42000200320029
:103190000170a00024000500810f700001003200c2
:1031a0000408050044000500810f700002003a0089
:1031b000140005008502e9000000400081c04800bd
:1031c000fcff3b000170a000240005008103780093
:1031d000e9ff07000001be006000b8000478a3000a
:1031e00013003a006220e10015003e000d00390096
:1031f0008301d1000281d3008180d3008301d100fb
:103200000281d3008180d3008301d1000281d300e9
:103210008180d3000538b000c42add00f300b2007d
:103220008381720007f0a70003f0a00000000600f1
:10323000f3ff2700f2ff2f006110b900fbff3700fa
:1032400003ff2700f7ff37008f1fd100440207005c
:103250008f87e9000000e000000006001400fa007b
:10326000889fbe008a9fbe008c9fbe000004be00e7
:103270000205be00680047000a90be000890be002c
:10328000600207000070a7000bf0a100304320008f
:103290009e02900080825200b0fe2f000028e100c4
:1032a00011003d00b0fc2f000028e10015003400a3
:1032b0001e0990008e0890007e0090000501b0006d
:1032c0000201d1008180d3000080d3008502e80094
:1032d000fbff3a000b00e00085023b00600010009d
:1032e000e080180082023700f0ff2f00f1ff270076
:1032f0000b00e0007e023b000100280000002000df
:103300007b0237006000b800790237004f89de0089
:10331000820178007b02370007f0a200b00237007c
:10332000809feb000e0207008f87e9000000e0009d
:10333000000006002800fa00889fbe008a9fbe0099
:103340008c9fbe0003866b00550207000028a30077
:1033500064003a000128a30067003a000008a300b7
:1033600062003a000108a30065003a001e009000c8
:10337000be08900081064000ed3fb100f480570088
:10338000ee019000111ab8008e099000311bb800b0
:103390009e099000311cb800511db800f4855700fb
:1033a00046000700fe0190003a0007008b85e80008
:1033b0003e0007008e09900040000700ee019000db
:1033c000340007008b85e800380007008e09900064
:1033d000400007009e0990001b18b80089044000b7
:1033e0000a854800fe019000340007008b85e80044
:1033f00038000700ee019000300007008e099000b1
:103400001b18b800890440000a8548000a98a300e8
:1034100008003a000402420085824a0006034b007d
:1034200087834b0008044c0089844c000a054d003a
:103430008d06e90084827200850273004c3add003b
:10344000850272000100320015002000443ade00bf
:103450001400b2004538de00cb45dd000b007000e3
:10346000c540de00cb4ddd008b8070004549de009d
:10347000cb55dd000b017100c551de000d03780056
:10348000d402070003f0a1000cf0a70003f0a00095
:10349000170237001b18b800850240000683480059
:1034a000e0834b0060044c00070037001b18b80095
:1034b0000603400087834800faff37001b18b80056
:1034c0008703400008844800e0844c0060054d00fc
:1034d000000006001b18b80008044000898448005a
:1034e000faff37000108a300fe013a005800be00b1
:1034f0005801be00e3ff37000008a300f9013a00bd
:1035000009047800f9ff37002800fa00889fbe0000
:103510008a9fbe008c9fbe0003866b00e0010700ff
:103520006400e100440032006408e1004a00320017
:103530006100e100460032006108e100490032000c
:10354000ec0647006000b8003d02be003d03be002f
:10355000f48657006011b8003d04be003d05be0072
:103560007d0320000b0037000000a0008d06e9005d
:10357000130032000402420085824a0006034b0019
:1035800087834b0000004000818048000201490011
:10359000838149000802520089825a000a035b00b5
:1035a0008b835b00f0ff3b000802420089824a00e7
:1035b0000a034b008b834b008d06e900edff3a00b8
:1035c0008482720086827200f707b20087827200de
:1035d00001003200150020001e0490003e0b9000f8
:1035e00006035400e63fb0000368a3000700320062
:1035f0000000a7000500a0008301d1000281d300d4
:103600008180d3000080d3000603e8008301d1004d
:103610000281d3008180d3000080d3000002eb0040
:103620000482d2006b02070003f0a1000cf0a70097
:1036300003f0a000ae013700640247006408e10017
:10364000a80132003400be003401be00f6ff37008e
:103650006108e100a30132006011b8006000b80009
:10366000f1ff370003ff270002002000fbff3700b7
:1036700058fe07000400be0000000600881f780006
:10368000000478005001be004000be00040040006d
:10369000858048000601490087814900009cbe00e2
:1036a0000294be000400e1000588e1000690e100fc
:1036b0000798e10002003100680044001008e800ab
:1036c0004f04780000000600f4874700889fbe0082
:1036d0008a9fbe008c9fbe008e1f78000205be0030
:1036e0000004be00d4b79f00e5b79f00f6b79f0067
:1036f00087bf9f000000eb00c0b79f00b0b79f00de
:10370000a0b79f0090b79f0080b79f000d042000d6
:10371000bfb097004fb09700000140000000e000ec
:103720000f003d004f08de0000007100c0b79f0091
:103730009e00070001003d0012002000a1000700cc
:1037400001003d0012002000a6000700b1000700a4
:10375000b60007000f004000c8ff07002200370036
:103760004f08de0000067100ccb79f008f000700f5
:1037700001003d00120020009200070001003d0002
:103780001200200097000700a20007000fb2970068
:103790009fb297002fb39700bfb39700a90007000f
:1037a0000000520081805a0002015b0083815b00af
:1037b00080b79f0091b79f00a2b79f00b3b79f004b
:1037c0000007eb009f0007000020e10001a8e100d6
:1037d00002b0e10003b8e100010031001e0020004a
:1037e0000e005600c0b79f004fb297000400e000e3
:1037f0000700350010002000010020006011b80013
:1038000008047000898470000a0571008b857100be
:103810008d06e900beff3a000400e00003003d0011
:10382000820007000f00400094ff07004fa8970098
:103830000000e00004003a000fb497009fb4970026
:103840002fb59700bfb59700940007004f07780089
:103850004f06be004f05be004f04be004f01b10031
:1038600000000600881f780018002000881f7800dc
:1038700095ff07008f87e9004f04780000000600dd
:10388000801feb0090ff07008f87e9000000060013
:10389000889fbe008a9fbe008c1f78006e000700c4
:1038a00007003d0073000700e00f5b00e08f5b0046
:1038b00007003d00320007000006eb00040037005f
:1038c0003400070002003d002a0007001c00200011
:1038d00072000700e3ff07000203be000002be0003
:1038e0000c00e00001003200220007000400be00ce
:1038f0000601be004f0678004f05be004f04be0013
:1039000000000600889fbe008a9fbe008c1f7800c2
:103910005100070005003d0056000700e00f5b0066
:10392000e08f5b0006003d0004003700190007002f
:1039300003003d006000b8006011b80010000700ef
:1039400056000700ceff07000203be000002be00c3
:103950000c00e00001003200060007000400be0079
:103960000601be004f0678004f05be004f04be00a2
:10397000000006006000b8006011b80000003700c9
:1039800004025000858258000603590087835900bd
:10399000000006000006eb00e00f5200e08f5a0026
:1039a000e00f5b00e08f5b0000000600018040003c
:1039b00090b79f000001eb008fb097000100e0007e
:1039c000000006000200700090b79f0001804000d8
:1039d00080b79f000001eb00ffa897000100e00006
:1039e000000006000200700080b79f0001804000c8
:1039f0006faa9700cf20de0001007000f0af9f009b
:103a000004024200250007004f18de000002720089
:103a100000000600e4af9f000804440089844c00c5
:103a20000a054d008b854d00000006003fb297004f
:103a3000cfb297005fb39700efb3970000fe2f005f
:103a4000000006003fb09700cfb097005fb197002d
:103a5000efb19700000006000205be000004be00a2
:103a6000e00f5000e08f5800e00f5900e08f590040
:103a7000000006006000b8006011b80008045000a3
:103a8000898458000a0559008b8559001c002000c4
:103a9000e00f5200e08f5a00000006000800be0050
:103aa0000a01be0000000600889fbe008a9fbe007b
:103ab0008c1f78000205be000004be000006eb006b
:103ac000e00f5000e08f5800e00f5900e08f5900e0
:103ad00007003d006000b8006011b8000804500005
:103ae000898458000a0559008b8559001c00200064
:103af000e00f5200e08f5a00e00f5b00e08f5b00a8
:103b000002003d000f0007000c00a2000800be00ec
:103b10000a01be005b0107000203be000002be00f6
:103b20000c00e00001003200060007000400be00a7
:103b30000601be004f0678004f05be004f04be00d0
:103b4000000006006000b8006011b80004025000d8
:103b5000858258000603590087835900000006003b
:103b6000889fbe008a9fbe008c9fbe000404be00da
:103b70000605be00809fbe00829fbe006301070055
:103b8000040678000800be000a01be005f010700bd
:103b9000840678004f03be004f02be008d4f7600b2
:103ba0007fb0970013003300f0ff2f008b8f6b0066
:103bb00006003b000d0666000c00a7000a00370057
:103bc00007f0a600100020000a003700880f5200fe
:103bd000898f5a008a0f5b008b8f5b0003003900ce
:103be0001000200001003e000000200007f0a700a8
:103bf0000000ea004f06be004f05be004f04be00a5
:103c000000000600800078005002be005003be0095
:103c10004439de00f700b200f37f200003016100a9
:103c2000090032000218e10016003a008501720016
:103c300083017300838173000008200015003a009f
:103c400040002000130037008501720083017300db
:103c50008381730005003a0004a8be0006a8be00d8
:103c6000100020000b0037000201e90004024200ae
:103c700085824a0006034b0087834b000748a30058
:103c8000f9ff32000740a00004a8be0006a8be004d
:103c9000200020008000980092009800000006009c
:103ca000680447000294be000094be00fc04470074
:103cb0008694be008494be0009007800d1ff0700fe
:103cc00008007800cfff070099007800814f70004e
:103cd0000b003b000800be001e0107004f00b100b2
:103ce00003003700f3ff2700f2ff2f006110b90037
:103cf0004f06be004f05be004f04be000080fa0014
:103d000000000600889fbe00830478000300e000e6
:103d10002c00350003003c0000827000040271009a
:103d20002600320036432000c50020008383cf00e8
:103d30000a0039000541b1008283cf000700390035
:103d40000541b1008183cf00040039000541b10075
:103d50008083cf00010039000541b10085c35300c5
:103d60006022b800120032000a003b008482720018
:103d7000610260008301d1000281d3008180d30001
:103d80000080d3000603e8008743e800f7ff3a000d
:103d90000700370000004000818048000201490010
:103da000838149000603e9008743e900f9ff3a00ef
:103db0008800070009f0a70003f0a0004f04be0030
:103dc0000000060060001000e0801800600119008b
:103dd000e0811900d3ff3b00033e2c00f7ff3700c2
:103de0002800fa00889fbe008a9fbe008c9fbe00fc
:103df00007067800878669000c003b000304780002
:103e00008704780008f0a10009f0a100840f500099
:103e1000858f5800860f5900890f5c00030033001e
:103e20000cf0a20001003a000cf0a1009cff07007a
:103e30006400e1005f003200780147006408e1009f
:103e4000610032006c014700748557003200be00eb
:103e50001201be003a04be001a05be001e03900007
:103e6000be0a90008503530006003d000004fd00db
:103e70008104fd000205fd008305fd008703ea00c3
:103e8000050378000df8a30004003200600414005c
:103e9000e0841c0060051d00e0851d006022b80064
:103ea0007d0320000d38e1008006eb000b00390097
:103eb0004433dd00f300b2008301730039003700a2
:103ec000848272000d027800e10664008b85d100c7
:103ed0000a85d3008984d3000884d3008703e900ce
:103ee000f7ff3b0008004000898048000a014900b4
:103ef0008b81490004003b0060001000e080180046
:103f000060011900e08119000358a3000900320084
:103f10008d82720084827200610260008301d10090
:103f20000281d3008180d3000080d3000603e80023
:103f30001b0037000348a30017003a000600e0000a
:103f4000170034000603e9000d00a300000048003c
:103f50008180480002014900838149000348a30091
:103f60000f003a000600e000090034000603e900f3
:103f7000000040008180480002014900838149001f
:103f800001003a000003eb000348a300f5ff3200f4
:103f90006022b800020037008482720061826600ed
:103fa0000c00070003f0a1000cf0a70003f0a00034
:103fb0004fff3700640147006408e10002003a0047
:103fc0000df8a30047ff3a003200be001201be0008
:103fd00047ff370018002000570020000804530056
:103fe0000d003d000600200097fc2f000740e10077
:103ff0001e00340084827200610260008301d100df
:104000000281d3008180d3000080d3000804e8003f
:10401000f8ff3a00470020006104600005047400c6
:10402000040464000d00320061004000e08048009c
:1040300060014900e081490003b8a5000700320093
:104040000603e8006538e10004003a008301d1006e
:104050000281d3008180d3000080d300f87f20004c
:104060000830e10003003500080378006000b80064
:104070006011b8004433dd00f300b2008301730027
:1040800000000600889fbe008a9fbe008c9fbe0075
:104090000404b8000506b8008904460060854e0097
:1040a0000606b8000a054600e0854e000706b8007f
:1040b0008b054600040eb800890446000a854e00b0
:1040c000e0854d00050eb8000a0546008b854e00c0
:1040d000060eb8008b0546000416b8000a05460017
:1040e0008b854e000516b8008b054600041eb800ef
:1040f0008b0546000800be000a01be004f06be0048
:104100004f05be004f04be000000060005ff27005b
:1041100005826100070032000428e100010032003e
:10412000240005000600070001003a0044000500d5
:104130000408050002000700f9ff3a00140005001a
:104140006f82610081027000850271008502720039
:1041500000000600e48240001078a300070032004f
:10416000640240001178a3003400be001401be00b8
:10417000040032000330a700000006003500be0036
:0c4180001501be000330a0000000060086
:020000040000fa
:0200000401f009
:04000c00f8ff0000f9
:020000040000fa
:0200000401f009
:040010007fff00006e
:020000040000fa
:0200000401f009
:040014007fff00006a
:020000040000fa
:100008000c4600000c4600000c4600000c460000a0
:100018000c4600000c4600000c4600000c46000090
:10002800382f00000c4600000c4600000843000072
:100038000c4600000c4600000c4600005445000029
:100048000c4600000c4600000c460000e83b00008f
:100058003c3c0000502f00000c4600000c460000fd
:100068000c4600000c4600000c4600000c46000040
:100078000c4600000c4600000c4600000c46000030
:100088000c4600000c4600000c4600000c46000020
:100098000c4600000c4600000c4600000c46000010
:1000a8000c4600000c4600000c4600000c46000000
:1000b8000c4600000c4600000c4600000c460000f0
:1000c8000c4600000c4600000c4600000c460000e0
:1000d8000c4600000c4600000c4600000c460000d0
:1000e8000c4600000c4600000c4600000c460000c0
:1000f8000c4600000c4600000c4600000c460000b0
:100108000c4600000c4600000c4600000c4600009f
:100118000c4600000c4600000c4600000c4600008f
:100128000c4600000c4600000c4600000c4600007f
:100138000c4600000c4600000c4600000c4600006f
:100148000c4600000c4600000c4600000c4600005f
:100158000c4600000c4600000c4600000c4600004f
:100168000c4600000c4600000c4600000c4600003f
:100178000c4600000c4600000c4600000c4600002f
:100188000c4600000c4600000c4600000c4600001f
:100198000c4600000c4600000c4600000c4600000f
:1001a8000c4600000c4600000c4600000c460000ff
:1001b8000c4600000c4600000c4600000c460000ef
:1001c8000c4600000c4600000c4600000c460000df
:1001d8000c4600000c4600000c4600000c460000cf
:1001e8000c4600000c4600000c4600000c460000bf
:0801f8000c4600000c4600005b
:020000040000fa
:100208000c4600000c4600000c4600000c4600009e
:100218000c4600000c4600000c4600000c4600008e
:10022800382f00000c4600000c4600000843000070
:100238000c4600000c4600000c4600005445000027
:100248000c4600000c4600000c460000e83b00008d
:100258003c3c0000502f00000c4600000c460000fb
:100268000c4600000c4600000c4600000c4600003e
:100278000c4600000c4600000c4600000c4600002e
:100288000c4600000c4600000c4600000c4600001e
:100298000c4600000c4600000c4600000c4600000e
:1002a8000c4600000c4600000c4600000c460000fe
:1002b8000c4600000c4600000c4600000c460000ee
:1002c8000c4600000c4600000c4600000c460000de
:1002d8000c4600000c4600000c4600000c460000ce
:1002e8000c4600000c4600000c4600000c460000be
:1002f8000c4600000c4600000c4600000c460000ae
:100308000c4600000c4600000c4600000c4600009d
:100318000c4600000c4600000c4600000c4600008d
:100328000c4600000c4600000c4600000c4600007d
:100338000c4600000c4600000c4600000c4600006d
:100348000c4600000c4600000c4600000c4600005d
:100358000c4600000c4600000c4600000c4600004d
:100368000c4600000c4600000c4600000c4600003d
:100378000c4600000c4600000c4600000c4600002d
:100388000c4600000c4600000c4600000c4600001d
:100398000c4600000c4600000c4600000c4600000d
:1003a8000c4600000c4600000c4600000c460000fd
:1003b8000c4600000c4600000c4600000c460000ed
:1003c8000c4600000c4600000c4600000c460000dd
:1003d8000c4600000c4600000c4600000c460000cd
:1003e8000c4600000c4600000c4600000c460000bd
:0803f8000c4600000c46000059
:020000040000fa
:10418c00252e000031660000002500002e320000b4
:10419c0066200000560000000d0a00002d2d0000c6
:1041ac002d2000004d4500004e4900005520000018
:1041bc00434f00004e540000524f00004c200000b2
:1041cc00445300003138000042320000302000001f
:1041dc002d2d00002d0d00000a000000312e0000d6
:1041ec00204100006669000073650000617a0000e0
:1041fc0061200000546500006d70000065720000c5
:10420c006174000075720000610d00000a0000006e
:10421c00322e00002053000063680000696d00001e
:10422c0062610000204d00006f6400002028000037
:10423c0041550000544f00002f4d0000414e00002e
:10424c00554100004c2900000d0a0000003300000d
:10425c002e20000053740000617400007573000080
:10426c002053000069730000746500006d0d0000a0
:10427c000a000000417300007465000070740000b7
:10428c00206300006f6d0000616e0000646100002f
:10429c003a200000005500006c7400002e43000012
:1042ac006f6d00003a20000025630000000d000037
:1042bc000a2d00003e200000546500006d700000c7
:1042cc0065720000617400007572000061200000ce
:1042dc0065730000746500003a200000252e000074
:1042ec0031660000204300000d0a00000041000070
:1042fc00555400004f200000200000004d410000ec
:10430c004e550000414c0000004100005554000087
:10431c004f0000000d0a00002d3e0000204d000053
:10432c006f6400002073000063680000696d00007a
:10433c006261000074200000706500003a200000eb
:10434c00257300000d0a0000000d00000a2d00006e
:10435c003e2000005354000041540000555300000f
:10436c003a2000004d6f000064200000257300000f
:10437c00207c0000205400003a200000252e000074
:10438c0031660000432000007c200000563a0000fb
:10439c00202500002e320000665600000d0a000099
:1043ac00000d00000a2d00003e200000434f0000cd
:1043bc004d4100004e44000041200000494e0000d9
:1043cc00564100004c49000044410000210d000002
:1043dc000a000000546500006d7000003a200000d7
:1043ec0020200000202000002020000043000000be
:1043fc004d6f0000643a000020410000555400004d
:10440c004f20000000540000656e0000733a00005d
:10441c0020200000202000002020000020000000b0
:10442c00556c0000742e0000436f00006d3a0000c4
:10443c002020000020000000546500006d7000007a
:10444c0000540000656e000073000000536500000e
:10445c00727600006f000000536500007269000066
:10446c00616c000000530000746100007465000072
:10447c000000000011110000222200003333000064
:10448c004444000055550000666600007777000034
:10449c008888000099990000aaaa0000bbbb000004
:1044ac00cccc0000dddd0000eeee0000cecd000037
:1044bc00acab000002020000030300000404000087
:1044cc0005050000060600000707000008080000ac
:1044dc000a09000010100000101100001212000058
:1044ec00514300006f6e0000734200003100000069
:1044fc0051500000726f0000644200003200000056
:10450c0051500000726f0000644200003300000044
:10451c00514300006f6e0000734200003400000035
:10452c0051500000726f0000644200003500000022
:10453c00514300006f6e0000734200003600000013
:10454c0096000000c8000000fa0000002c010000da
:10455c005e01000090010000c2010000f4010000a7
:10456c0042540000657300007431000000420000ea
:10457c00546500007374000032000000434f0000cb
:10458c004d54000078000000434f00004d520000d5
:10459c0078000000496e0000744d0000617400004a
:1045ac0068000000494400004c4500000000000079
:020000040000fa
:1045bc000000fa00fc3cec000080fa000000060051
:1045cc000000fa00889fbe008a1f78000005780062
:1045dc0001047800e38f5000010036003800200001
:1045ec00fc0f070040e880008a0f500002003a00e0
:1045fc000005eb00020037000a00e00002003a0060
:10460c0049e88000010037008a0478008910900086
:10461c00810f540029003200030036000a00e0002c
:10462c0003003a00040037000a00e00002003a00e0
:10463c001a002000010037000005eb00390890003b
:10464c00808f500001003a00b80c98008814980034
:10465c0064001400e00498006a09b900e0c7210066
:10466c0002004000d9009000808f50000e003a00ec
:10467c000984e800080078002c100700b9089000a5
:10468c0000e88000808f50000100360001e88800af
:10469c00390990006a11b900e0c7210002004000fe
:1046ac0088007800fb0f0700e10f550003003a006b
:1046bc00be4302000000000000000000ca0f07000b
:1046cc004f0578004f04be000080fa000000060081
:1046dc000000fa00889fbe008a1f780080047800d2
:1046ec00bc0f070040e88000890f500002003a0020
:1046fc008004eb00020037000900e00002003a00e1
:10470c0048e8800001003700090478000885e800bb
:10471c000a00780005100700280890000000e0004f
:10472c00020032006c004400001007008a00780080
:10473c0020c52100d70f0700ab0f07000900e000d0
:10474c0003003a00be43020000000000000000001d
:10475c004f0578004f04be000080fa0000000600f0
:10476c000000fa0000017800d000900020c5210064
:10477c00808f500007003a00a2089000c0c52100ad
:10478c00808f500003003200100020000100e00078
:10479c00010032000000eb000080fa00000006006f
:1047ac000000fa00889fbe00000478000000e000c2
:1047bc001f00320040e88000800f54001c003200c3
:1047cc00840f070008007800e5ff0700e10f500098
:1047dc0016003a008884e80009007800d30f07001f
:1047ec00b808900000e88000808f5000010036006f
:1047fc0001e88800380990006a11b900e0c721006f
:10480c000200400089007800a20f070040e88000f9
:10481c00b808900030089000808f500003003900d9
:10482c00be43020000000000000000006e0f0700f5
:10483c004f04be000080fa00000006000000fa00e1
:10484c00889fbe008a1f780000047800c4ff070010
:10485c000005eb00e10f50001d003a00e1e780007d
:10486c000100e00016003a0040e8800001057800e5
:10487c00b808900030089000808f5000010039007b
:10488c001a0020008884e80009007800a70f0700b0
:10489c00b808900000e88000808f500001003600be
:1048ac0001e88800380990006a11b900e0c72100be
:1048bc000200400089007800760f070004003700e2
:1048cc00ec004400c0c52100720f07000005eb008e
:1048dc000a0078004f0578004f04be000080fa00f3
:1048ec00000006000000fa0042a0a800fe3cef0009
:1048fc00350f07000080fa00000006000000fa00e7
:10490c00881f7800fc1ce2002b003a00043dec00f0
:10491c00041de20005003a0040e3800031e3800012
:10492c0041e3880030e38800f63cec0040e3800073
:10493c001000e00022003a002a0037009800900096
:10494c0020e88000808f500026003e000880e800a0
:10495c00760f0700280890000000e00002003200eb
:10496c006c004400710f0700b808900000e880004c
:10497c00808f50000100360001e888008880e80034
:10498c00380990006a11b900e0c72100020040000c
:10499c00400f070040e380001000e00011003200df
:1049ac0040e3800030009000300490000800e000ec
:1049bc00e2ff3a000b003700fa3cec00090037002c
:1049cc0040e3800030009000300490000800e000cc
:1049dc00040032009800900020e88000808f500086
:1049ec00daff36004f0478000080fa000000060061
:1049fc000000fa00889fbe00f60e0700fc3ced009c
:104a0c00e0e780000000e00033003a00061de20001
:104a1c003100320080047800150037006c0044002f
:104a2c00420f07000880e800400f0700b80890000c
:104a3c0000e88000808f50000100360001e88800fb
:104a4c008880e800380990006a11b900e0c721009d
:104a5c00020040000f0f0700b808900040e88000eb
:104a6c0030089000808f50000100390019002000a0
:104a7c005c1ce2000500320010e380003000900066
:104a8c00000478000000e000e4ff3a00fa1ce200a9
:104a9c0013003a000500370098ff0700fa3ced00c0
:104aac00fa1ce20006003200fbff3700e18f5400d5
:104abc0003003200c0e78000e10f500006003a000e
:104acc00f83cef00be4302000000000000000000b4
:104adc0018002000050037000004eb00030037002d
:104aec00fa1ce200f6ff3200ebff3700be0e0700a7
:104afc00080078004f04be000080fa000000060099
:104b0c000000fa00889fbe00800478000000e000de
:104b1c0016003200a6fe070028e880000884440036
:104b2c00089dec00010f070040e880001800980079
:104b3c0020e88000800f54000500310041e880001f
:104b4c0030e380008180e800e00e070004003700ad
:104b5c0041e8800040e380008180e800db0e070024
:104b6c00a3ff07000000e00003003a00be43020070
:104b7c0000000000000000004f04be000080fa009e
:104b8c00000006000000fa00889fbe008004780038
:104b9c000104780086fe0700990078000884400024
:104bac0020e88000808f500003003600888f500072
:104bbc000600360002003700888f500005003e00ca
:104bcc0020e88000800f540002003e000000eb0043
:104bdc000100370010002000880c78000000e00075
:104bec0010003200089dec00d00e070040e8800059
:104bfc001800980020e88000800f54000500310058
:104c0c0041e8800030e380008180e800af0e0700af
:104c1c000400370041e8800040e380008180e80018
:104c2c00aa0e070072ff07000000e00003003a0024
:104c3c00be43020000000000000000004f04be0054
:104c4c000080fa00000006000000fa00881f7800bf
:104c5c00600e070028e88000630e0700080078004b
:104c6c004f0478000080fa00000006000000fa00f3
:104c7c0030e880000080fa00000006000000fa0016
:104c8c00fc1ce2001500320010002000c0e7880078
:104c9c0019003700003ded001000370000e88000df
:104cac006a00b900e2c721008000410011009000a9
:104cbc00100190009200980064804000800f510019
:104ccc0002003a001201900092009800110090002e
:104cdc003000900040e888000700370000e88000b2
:104cec006a00b900e2c72100620078000000e00011
:104cfc00e8ff3200e9ff37000080fa0000000600f0
:104d0c000000fa00881f78000104780041e8800058
:104d1c00ec8040006d0e0700089dec00830e070030
:104d2c00e10f440005003a0041e880008180e80072
:104d3c0020c52100570e07001000370020e8800026
:104d4c000000440041e880009000980021e88000b9
:104d5c00810f50000500310041e8800030e38000f5
:104d6c008180e800590e07000400370041e88000fc
:104d7c0040e380008180e800540e07004f04780067
:104d8c000080fa00000006000000fa00881f78007e
:104d9c0080007800100078000000e00002003a006b
:104dac0000047800020037003100900030049000bd
:104dbc006c0044005d0e0700fc1ce2000e003a0083
:104dcc000880e800590e0700b808900000e8800041
:104ddc00808f50000100360001e888008880e800d0
:104dec00380990006a11b900e0c7210002004000a8
:104dfc00280e070003003700ec004400c0c521005a
:104e0c00240e07003808900041e88000b10890009b
:104e1c000001eb00810f500001003900120020004e
:104e2c00020078004f0478000080fa0000000600b1
:104e3c000000fa00b1e780000108780021e880004a
:104e4c00110098000080fa00000006000000fa0033
:104e5c00889fbe008a1f7800000478000105780046
:104e6c00dc0d07001a0178008004eb00e10f410013
:104e7c0014003200b0e78000980f100004003200dc
:104e8c0021e8800018009000810f50000c003600c3
:104e9c009800900001007800041db500800f5100af
:104eac000700360001007800041db500000d51000c
:104ebc0008007800deff07008004eb0001003700db
:104ecc0019002000c80d0700090078004f05780074
:104edc004f04be000080fa00000006000000fa003b
:104eec0010002000c0e788000080fa0000000600d7
:104efc000000fa000080fa00000006000000fa0032
:104f0c00f0e38000e10f500003003600be430200c6
:104f1c000000000000000000fa050700f8ff370051
:104f2c000000fa00889fbe008a1f78008004780079
:104f3c00020478007a00400042002000b3ed070024
:104f4c000040eb00d05c9800e30f540003003600e7
:104f5c00380020001a0020000100370064051400fe
:104f6c00b80c9800881498000980e800c40d07005c
:104f7c006c84440008007800c10d0700c904980037
:104f8c000a0c7800990c98004f0578004f04be006d
:104f9c000080fa00000006000000fa00889fbe00a6
:104fac00e8c7210069ca210008007800ab0d070092
:104fbc006a044400888f5400fbff3a0040c721006c
:104fcc00a60d0700a0c62100a40d0700c0c5210036
:104fdc00a20d070020c52100a00d070040c721002d
:104fec0040e38800a0c6210030e388004f04be00d7
:104ffc000080fa00000006000000fa00889fbe0046
:10500c008a1f780000057800010478002002200037
:10501c00bc0e0700800478000000e0001000320095
:10502c000800e00003003a000a004500b50e070036
:10503c0000047800c80c98000800e00004003a0056
:10504c0009007800c80e07008804780004003700b7
:10505c000a014500510a2000080078007eed070087
:10506c00090078004f0578004f04be000080fa005c
:10507c00000006000600fa00889fbe008a9fbe0052
:10508c008c9fbe00000f78000106780002057800a6
:10509c00130798008406780025079800860078008e
:1050ac008705780002007800d3ff070080047800a1
:1050bc000080eb000900e00041003200490c900038
:1050cc000a004500000044000080e900f00c980044
:1050dc000a0278008b0178000d0178008c007800b2
:1050ec00090078008eff07001e0190009e007800da
:1050fc0008007800ee0c0700800c7800350d0700d6
:10510c00063dec0030e88000e10f500003003a004f
:10511c0049e88800a0ff070007003700fe1ce200ea
:10512c0005003a0040e8800030089000808f56005f
:10513c000100390049e88800b908900010e88000a7
:10514c00808f50000100360011e88800f43cec0020
:10515c00b908900000e88000808f500001003600f4
:10516c0001e888008980e800390990006a11b900cb
:10517c00e0c7210002004000460d07001a0d070091
:10518c002e0090000000e0000100320009087800b9
:10519c00fe1ce2000900320040e88000300890005c
:1051ac008d0f500005003100be43020000000000ce
:1051bc00000000001000200001003700100020004b
:1051cc004f06be004f05be004f04be000080fa0023
:1051dc00000006000000fa008003eb000003eb0067
:1051ec00860278000602780086017800920620007c
:1051fc00812d2a00407822009eff0700e10f50000d
:10520c0004003a0042a0a800f0e78800043def003b
:10521c00bd0c07000080fa00000006000000fa0038
:10522c0040e880000080fa00000006000000fa0050
:10523c00889fbe000004780040e88000b808900009
:10524c0030089000808f50001e00310040e8800034
:10525c003008900064001000600498006a09b900de
:10526c00e0c7210002004000d8009000808f500061
:10527c0011003a008884e800090078002b0d070023
:10528c0040e88000b0089000310c980000e88000e5
:10529c00808f50000100360001e88800380990002a
:1052ac006a11b900e0c721000200400089007800b3
:1052bc00f80c07000300370040e88000300890002d
:1052cc00300c98004f04be000080fa00000006006d
:1052dc000000fa00889fbe00000478000000e00087
:1052ec0015003200b008900000109000808f500024
:1052fc00110032008884e800090078000b0d0700cb
:10530c0088109000310c98006480100060049800a4
:10531c0000e88000808f50000100360001e8880012
:10532c00380990006a11b900e0c721000200400062
:10533c0089007800d70c07004f04be000080fa00eb
:10534c00000006000000fa00889fbe008a9fbe0085
:10535c0080047800010578000000e0002400320091
:10536c0060022000e70d0700000478000000e00058
:10537c001f0032000ac8b900800578000000e80060
:10538c00e00d070000017800000c78000000e00040
:10539c00130032000b004000100498000000eb00da
:1053ac00600c9800220498000900e90000d0b900b4
:1053bc000000410030049800790c98000a14980001
:1053cc000080eb0010149800201498006800440032
:1053dc00a20c070072004400a00c07000500370067
:1053ec0008007800e00d07000004eb000100370016
:1053fc000004eb00080078004f05be004f04be000f
:10540c000080fa00000006000000fa00889fbe0031
:10541c00000478006f0c0700e80890008004eb0093
:10542c0078089000808f500001003a00190020008d
:10543c006d0c0700090078004f04be000080fa00d4
:10544c00000006000000fa00881f780000047800b5
:10545c00600c0700680c9000630c070008007800d3
:10546c004f0478000080fa00000006000000fa00eb
:10547c00600890000080fa00000006000000fa00ae
:10548c00881f78000004780010007800b60d070023
:10549c0008007800b40d07004f0478000080fa0073
:1054ac00000006000000fa00889fbe00000478008f
:1054bc00801490000900e00006003a001000e000a3
:1054cc001f003a001000900081ff0700190498009b
:1054dc001b0037000200e0000d003a002000900095
:1054ec000901780042ec0700280090008810900019
:1054fc00010040002004980098009000810f50009b
:10550c000f00390018007800200498000c003700b8
:10551c00300090000901780035ec0700380090004d
:10552c00881090000100500030049800980f500033
:10553c000300310018009000010050003004980066
:10554c00680890000000e800600c98004f04be0052
:10555c000080fa00000006000000fa00889fbe00e0
:10556c0000047800010278008204780003017800be
:10557c00e0089000700890008001eb00808f5000d4
:10558c00160031008400780008007800c5ff070081
:10559c0028109000e10f40000b003a001808900012
:1055ac000000e0000c00320072004400f6fd070021
:1055bc000000e0000800320010002000800c780091
:1055cc0080017800050037000000e80020149800e6
:1055dc0013002000010037001300200003007800a6
:1055ec004f04be000080fa00000006000000fa0024
:1055fc0000017800810178001000e0000e003200fc
:10560c0030009000821090000100400030019800a2
:10561c0092009000810f50000200390012007800b7
:10562c003001980066004100900078000211900053
:10563c0003007800eeeb07000080fa000000060083
:10564c000000fa00889fbe000004780082047800f5
:10565c00600890000000e00017003200080078009d
:10566c00e2ff0700680890000000e900600c980059
:10567c0018109000e10f40000a003a00480090001a
:10568c000000e0000b00320068004400befd070083
:10569c000000e0000700320010002000800c7800b1
:1056ac00050037000000e8001014980010002000de
:1056bc0001003700100020004f04be000080fa00eb
:1056cc00000006000000fa00881f78000004780033
:1056dc00c00b0700281090000000e00029003c00df
:1056ec000d003700180890000000e0000a0032009e
:1056fc0072004400a4fd07000000e000010032002d
:10570c00f6fd0700281090000000e9002014980016
:10571c004240a900f3ff3c000080eb0020149800ed
:10572c00b10b0700ab0b0700181090000000e00055
:10573c0018003c000d003700480090000000e0000d
:10574c000a003200680044008ffd07000000e000f2
:10575c0001003200e1fd0700181090000000e90084
:10576c00101498004240a900f3ff3c000080eb00ad
:10577c00101498009c0b07004f0478000080fa006e
:10578c0000000600180890000000e000e2ff320064
:10579c00d7ff3700480090000000e000f3ff320014
:1057ac00e8ff37000600fa00889fbe008a9fbe0003
:1057bc008c1f7800800478008105780022079800ff
:1057cc00030678000005eb00820b070069089000c7
:1057dc000000e00023003200390490008b007800b8
:1057ec000900780081ff07000c00e0000f003a0070
:1057fc00690890000000e900e00c98001900e00036
:10580c0002003a0085fe07009004980049009000c1
:10581c000000e00010003200688044005afd0700d0
:10582c00e10f50000c003a0008003700b804980053
:10583c00190890000000e00007003200728044005c
:10584c0051fd07000000e00003003200be430200df
:10585c000000000000000000630b07001000200097
:10586c003d0037002e0490000800e00003003a00d1
:10587c005d0b070008007800370037000a00e000d5
:10588c0003003a000e00780069fd07001a002000a2
:10589c00550b070046fb07004e0b07001910900034
:1058ac00e10f400002003a000000eb009014980059
:1058bc0029109000e10f400002003a000000eb00bc
:1058cc00a0149800480b0700e40047000e00780075
:1058dc005efd07000000e0001b003a003d0b0700d6
:1058ec00690c9000400b07000800e00012003a0021
:1058fc001900e00004003a00360b07001900900074
:10590c004afe0700380b0700ae009000728044007e
:10591c00fbfc0700090078006aff070034fc070055
:10592c000000e000a8ff3a00be43020000000000a7
:10593c0000000000a4ff37000900780061ff070099
:10594c002bfc0700a0ff3700090078005dff070063
:10595c0027fc07000000eb004f0678004f05be0047
:10596c004f04be000080fa00000006000600fa009a
:10597c00889fbe008a9fbe008c1f78008004780030
:10598c000106780022079800830578000005eb00db
:10599c00100b0700e908900079089000808f5000e8
:1059ac00110031000b0178008c00780009007800a0
:1059bc00bcfe0700190890000000e0000700320050
:1059cc0072804400f0fc0700e10f500003003a0025
:1059dc00be4302000000000000000000020b0700a4
:1059ec0010002000360037002e0490000800e00064
:1059fc0003003a00fc0a070008007800300037006a
:105a0c000a00e00003003a000e00780008fd0700d1
:105a1c001a002000f40a0700e5fa0700ed0a070057
:105a2c0019109000e10f400002003a000000eb005a
:105a3c009014980029109000e10f400002003a00e9
:105a4c000000eb00a0149800e70a0700e4004700f0
:105a5c000e007800fdfc07000000e00014003a0086
:105a6c000900780068fe07000000e0000c0032001e
:105a7c00ae00900068804400a1fc0700090078008b
